{
  "contractName": "TestContract",
  "abi": [
    {
      "inputs": [],
      "payable": false,
      "stateMutability": "nonpayable",
      "type": "constructor"
    },
    {
      "constant": false,
      "inputs": [],
      "name": "setVar",
      "outputs": [],
      "payable": false,
      "stateMutability": "nonpayable",
      "type": "function"
    }
  ],
  "bytecode": "0x6080604052600560005534801561001557600080fd5b5060eb806100246000396000f3fe6080604052348015600f57600080fd5b506004361060285760003560e01c806330f05e2a14602d575b600080fd5b60336035565b005b600a6000541160ac576040517f08c379a00000000000000000000000000000000000000000000000000000000081526004018080602001828103825260108152602001807f5661726961626c6520746f6f206c6f770000000000000000000000000000000081525060200191505060405180910390fd5b600a60008190555056fea265627a7a72315820373b9741e57aff130324813da3b5c7ab5bf9c45950c6f728270ec67b8593e19864736f6c634300050b0032",
  "source": "pragma solidity ^0.5.11;\n\ncontract TestContract {\n  uint variable = 5;\n\n  constructor() public {\n  }\n\n  function setVar() public {\n    require(variable > 10, \"Variable too low\");\n    variable = 10;\n  }\n}\n",
  "sourcePath": "/home/mattczernik/Workspace/terminal-projects/truffle-test/contracts/TestContract.sol",
  "compiler": {
    "name": "solc",
    "version": "0.5.11+commit.c082d0b4.Emscripten.clang"
  },
  "schemaVersion": "3.0.16",
  "updatedAt": "2019-12-12T23:30:28.413Z",
  "devdoc": {
    "methods": {}
  },
  "userdoc": {
    "methods": {}
  }
}